:020000040800F2
:1000000000280020AD1A00083D1A0008431A000815
:10001000491A00084F1A0008551A0008000000008D
:100020000000000000000000000000005B1A000853
:10003000671A000800000000731A00087F1A000801
:10004000F51A0008F51A0008F51A0008F51A000854
:10005000F51A0008F51A0008F51A0008F51A000844
:10006000F51A0008F51A0008F51A0008F51A000834
:10007000F51A0008F51A0008F51A0008F51A000824
:10008000F51A0008F51A0008F51A0008F51A000814
:10009000F51A0008F51A0008F51A0008F51A000804
:1000A000F51A0008F51A0008F51A0008F51A0008F4
:1000B0008D1A0008F51A000800000000F51A000863
:1000C000F51A00080000000000000000F51A000802
:1000D00000000000F51A0008F51A000800000000F2
:1000E000F51A0008F51A0008F51A000800000000CB
:1000F0000000000000000000000000000000000000
:0C01000000000000000000005FF808F1A3
:10010C0010B5054C237833B9044B13B10448AFF345
:10011C0000800123237010BD680000200000000047
:10012C004C31000808B5034B1BB103490348AFF32E
:10013C00008008BD000000006C0000204C3100085D
:10014C0080B500AF0D4B1B68012B14D108210C4856
:10015C0001F0E5FF40210A4801F0E1FF4FF4007186
:10016C00074801F0DCFF4FF48051054801F0D7FF40
:10017C00322001F04DFB00BF80BD00BFBC00002051
:10018C000008014080B500AF0D4B1B68012B14D14A
:10019C0004210C4801F0C3FF20210A4801F0BFFFE5
:1001AC004FF48071074801F0BAFF4FF40061054825
:1001BC0001F0B5FF322001F02BFB00BF80BD00BF6A
:1001CC00BC0000200008014080B500AF0C4B1B6840
:1001DC00012B13D102210B4801F0A1FF102109487A
:1001EC0001F09DFF8021074801F099FF4FF48061D9
:1001FC00044801F094FF322001F00AFB00BF80BDDF
:10020C00BC0000200008014080B500AF012208218D
:10021C00204801F06CFF012202211E4801F067FF0B
:10022C00012204211B4801F062FF01224FF40071EE
:10023C00184801F05CFF01228021164801F057FF9D
:10024C0001224FF48071134801F051FF012240212B
:10025C00104801F04CFF012210210E4801F047FF1D
:10026C00012220210B4801F042FF01224FF4805162
:10027C00084801F03CFF01224FF48061054801F071
:10028C0036FF01224FF40061024801F030FF00BF3D
:10029C0080BD00BF0008014080B400AF064B1B6856
:1002AC00012B04D1044B00221A60012300E000232F
:1002BC001846BD4680BC70478400002080B400AF57
:1002CC00064B1B68012B04D1044B00221A6001233E
:1002DC0000E000231846BD4680BC70478800002013
:1002EC0080B400AF064B1B68012B04D1044B0022D9
:1002FC001A60012300E000231846BD4680BC7047FD
:10030C008C00002080B400AF034B01221A6000BFA8
:10031C00BD4680BC704700BF8400002080B400AF95
:10032C00034B01221A6000BFBD4680BC704700BF62
:10033C008800002080B400AF034B01221A6000BF7C
:10034C00BD4680BC704700BF8C00002080B500AF5C
:10035C005C4B1B685C4A13605C4B1B68594A13600E
:10036C004FF400515A4801F0ABFE03461A46574B66
:10037C001A60554B1A68534B1B689A4225D1514B46
:10038C001A68524B1B689A421FD1524B1A684F4B3A
:10039C001B689A420DD04D4B1B684E4A13604B4B59
:1003AC001B68002B11D1FFF7ADFF4B4BC8221A6015
:1003BC000BE0494B1B68013B474A1360464B1B68DB
:1003CC00002B02D1434B01221A60444B1B68444A58
:1003DC001360444B1B68414A13604FF480413C4806
:1003EC0001F06EFE03461A463E4B1A603C4B1A68EF
:1003FC003A4B1B689A4225D1384B1A68394B1B680B
:10040C009A421FD1384B1A68364B1B689A420DD052
:10041C00344B1B68344A1360324B1B68002B11D1D0
:10042C00FFF77CFF2C4BC8221A600BE02A4B1B6891
:10043C00013B294A1360284B1B68002B02D12A4B25
:10044C0001221A60294B1B68294A1360294B1B682F
:10045C00264A13604FF400411D4801F031FE03465B
:10046C001A46244B1A60224B1A68204B1B689A427E
:10047C0025D11E4B1A681F4B1B689A421FD11E4B6D
:10048C001A681C4B1B689A420DD01A4B1B681A4AEF
:10049C001360184B1B68002B11D1FFF74BFF0E4B51
:1004AC00C8221A600BE00C4B1B68013B0A4A136014
:1004BC00094B1B68002B02D10F4B01221A6000BFA5
:1004CC0080BD00BF040000200000002008000020B8
:1004DC00001001400C0000205800002014000020E7
:1004EC0010000020180000201C0000202400002018
:1004FC0020000020280000202C00002080B582B0B5
:10050C0000AF78607B68002B23D100220121C24808
:10051C0001F0EDFD00220221BF4801F0E8FD0022B0
:10052C000421BD4801F0E3FD00220821BA4801F086
:10053C00DEFD00221021B84801F0D9FD0022202157
:10054C00B54801F0D4FD01224021B34801F0CFFDA4
:10055C005DE17B68012B23D101220121AE4801F022
:10056C00C6FD00220221AC4801F0C1FD002204218D
:10057C00A94801F0BCFD01220821A74801F0B7FDF4
:10058C0001221021A44801F0B2FD01222021A24831
:10059C0001F0ADFD012240219F4801F0A8FD36E19C
:1005AC007B68022B23D1002201219B4801F09FFD87
:1005BC0000220221984801F09AFD0122042196485C
:1005CC0001F095FD00220821934801F090FD0022D6
:1005DC001021914801F08BFD012220218E4801F061
:1005EC0086FD002240218C4801F081FD0FE17B68E3
:1005FC00032B23D100220121874801F078FD002232
:10060C000221854801F073FD00220421824801F08B
:10061C006EFD00220821804801F069FD01221021A5
:10062C007D4801F064FD012220217B4801F05FFD33
:10063C0000224021784801F05AFDE8E07B68042B49
:10064C0023D101220121744801F051FD0022022125
:10065C00714801F04CFD002204216F4801F047FD68
:10066C00012208216C4801F042FD012210216A4848
:10067C0001F03DFD00222021674801F038FD0022E9
:10068C004021654801F033FDC1E07B68052B23D187
:10069C0000220121604801F02AFD012202215E485E
:1006AC0001F025FD002204215B4801F020FD002211
:1006BC000821594801F01BFD01221021564801F078
:1006CC0016FD00222021544801F011FD002240218A
:1006DC00514801F00CFD9AE07B68062B23D10022D7
:1006EC0001214D4801F003FD012202214A4801F08D
:1006FC00FEFC00220421484801F0F9FC00220821EC
:10070C00454801F0F4FC00221021434801F0EFFCB5
:10071C0000222021404801F0EAFC002240213E4802
:10072C0001F0E5FC73E07B68072B23D1002201214B
:10073C00394801F0DCFC00220221374801F0D7FCDB
:10074C0000220421344801F0D2FC01220821324855
:10075C0001F0CDFC012210212F4801F0C8FC012230
:10076C0020212D4801F0C3FC012240212A4801F030
:10077C00BEFC4CE07B68082B23D1002201212648CB
:10078C0001F0B5FC00220221234801F0B0FC00224C
:10079C000421214801F0ABFC002208211E4801F085
:1007AC00A6FC002210211C4801F0A1FC00222021F3
:1007BC00194801F09CFC00224021174801F097FCDD
:1007CC0025E07B68092B22D100220121124801F07F
:1007DC008EFC00220221104801F089FC0022042129
:1007EC000D4801F084FC002208210B4801F07FFC2D
:1007FC0001221021084801F07AFC00222021064831
:10080C0001F075FC00224021034801F070FC00BF90
:10081C000837BD4680BD00BF000C014080B582B0DA
:10082C0000AF78607B68002B29D100228021C8485A
:10083C0001F05DFC00224FF48071C54801F057FCBB
:10084C0000224FF40071C24801F051FC00224FF419
:10085C008061BF4801F04BFC00224FF40061BC48A2
:10086C0001F045FC00224FF48051B94801F03FFCE7
:10087C0001224FF40051B64801F039FC96E17B6837
:10088C00012B29D101228021B14801F030FC00223A
:10089C004FF48071AE4801F02AFC00224FF4007135
:1008AC00AB4801F024FC01224FF48061A84801F010
:1008BC001EFC01224FF40061A54801F018FC012236
:1008CC004FF48051A24801F012FC01224FF4005168
:1008DC009F4801F00CFC69E17B68022B29D10022B6
:1008EC0080219B4801F003FC00224FF48071984852
:1008FC0001F0FDFB01224FF40071954801F0F7FB6C
:10090C0000224FF48061924801F0F1FB00224FF479
:10091C0000618F4801F0EBFB01224FF480518C48B1
:10092C0001F0E5FB00224FF40051894801F0DFFB98
:10093C003CE17B68032B29D100228021844801F003
:10094C00D6FB00224FF48071814801F0D0FB0022CD
:10095C004FF400717E4801F0CAFB00224FF4806115
:10096C007B4801F0C4FB01224FF40061784801F090
:10097C00BEFB01224FF48051754801F0B8FB0022F8
:10098C004FF40051724801F0B2FB0FE17B68042B6D
:10099C0029D1012280216E4801F0A9FB00224FF4DD
:1009AC0080716B4801F0A3FB00224FF40071684882
:1009BC0001F09DFB01224FF48061654801F097FB2B
:1009CC0001224FF40061624801F091FB00224FF4C8
:1009DC0080515F4801F08BFB00224FF400515C48C2
:1009EC0001F085FBE2E07B68052B29D100228021F8
:1009FC00574801F07CFB01224FF48071544801F000
:100A0C0076FB00224FF40071514801F070FB00227C
:100A1C004FF480614E4801F06AFB01224FF40061F3
:100A2C004B4801F064FB00224FF48051484801F020
:100A3C005EFB00224FF40051454801F058FBB5E035
:100A4C007B68062B29D100228021414801F04FFB05
:100A5C0001224FF480713E4801F049FB00224FF413
:100A6C0000713B4801F043FB00224FF48061384891
:100A7C0001F03DFB00224FF40061354801F037FBDB
:100A8C0000224FF48051324801F031FB00224FF428
:100A9C0000512F4801F02BFB88E07B68072B29D1F4
:100AAC00002280212A4801F022FB00224FF48071A1
:100ABC00274801F01CFB00224FF40071244801F080
:100ACC0016FB01224FF48061214801F010FB01223A
:100ADC004FF400611E4801F00AFB01224FF48051D3
:100AEC001B4801F004FB01224FF40051184801F09F
:100AFC00FEFA5BE07B68082B2CD100228021144885
:100B0C0001F0F5FA00224FF48071114801F0EFFA70
:100B1C0000224FF400710E4801F0E9FA00224FF464
:100B2C0080610B4801F0E3FA00224FF400610848A1
:100B3C0001F0DDFA00224FF48051054801F0D7FA9C
:100B4C0000224FF40051024801F0D1FA2EE000BF10
:100B5C00000C01407B68092B28D10022802115480C
:100B6C0001F0C5FA00224FF48071124801F0BFFA6F
:100B7C0000224FF400710F4801F0B9FA00224FF433
:100B8C0080610C4801F0B3FA01224FF4006109486E
:100B9C0001F0ADFA00224FF48051064801F0A7FA9B
:100BAC0000224FF40051034801F0A1FA00BF0837AE
:100BBC00BD4680BD000C014080B582B000AF7860AE
:100BCC003960444B1B68012B4AD0012B78DCB3F104
:100BDC00FF3F02D0002B13D072E001224FF4804172
:100BEC003D4801F084FA01224FF400413A4801F0EB
:100BFC007EFA384B00221A60642000F01DFE64E07F
:100C0C0000224FF48041344801F071FA01224FF474
:100C1C000041314801F06BFA7B68304A82FB0312C9
:100C2C009210DB17D31A1846FFF768FC7A682B4B27
:100C3C0083FB02139910D317C91A0B469B000B4464
:100C4C005B00D11A0846FFF7E9FD254B1B68012B09
:100C5C0038D1204B01221A60642000F0EDFD31E008
:100C6C0001224FF480411C4801F041FA00224FF45C
:100C7C000041194801F03BFA3B68184A82FB031209
:100C8C009210DB17D31A1846FFF738FC3A68134B4F
:100C9C0083FB02139910D317C91A0B469B000B4404
:100CAC005B00D11A0846FFF7B9FD0D4B1B68012BF1
:100CBC000AD1084B00221A60642000F0BDFD03E04D
:100CCC0000BF02E000BF00E000BF00BF0837BD4618
:100CDC0080BD00BF300000200008014067666666DA
:100CEC00C400002080B582B000AF786039607F4BC3
:100CFC001B68012B00F08680012B00F3ED80B3F113
:100D0C00FF3F02D0002B13D0E6E001224FF48041CC
:100D1C00774801F0ECF901224FF40041744801F0DE
:100D2C00E6F9724B00221A60642000F0ADFDD8E0A9
:100D3C0000224FF480416E4801F0D9F901224FF4A2
:100D4C0000416B4801F0D3F97B686A4A82FB0312BD
:100D5C009210DB17D31A1846FFF7D0FB7A68654B55
:100D6C0083FB02139910D317C91A0B469B000B4433
:100D7C005B00D11A0846FFF751FD5F4B1B68002B37
:100D8C002BDC5E4B1B68022B0AD15D4B1B685D4A4A
:100D9C0082FB03125211DB17D31A574A13601CE063
:100DAC00564B1B68042B0AD1574B1B68554A82FBC8
:100DBC0003125211DB17D31A4F4A13600DE04F4B3D
:100DCC001B68032B09D1514B1B684E4A82FB031243
:100DDC005211DB17D31A484A13604D4B1B68012B79
:100DEC007CD1454B1B68013B434A1360494B1B6844
:100DFC00013B484A13603D4B01221A60642000F00D
:100E0C0043FD6BE001224FF48041394801F06FF94A
:100E1C0000224FF40041364801F069F93B68354A2D
:100E2C0082FB03129210DB17D31A1846FFF766FBEE
:100E3C003A68304B83FB02139910D317C91A0B462F
:100E4C009B000B445B00D11A0846FFF7E7FC314BC3
:100E5C001B68002B2BDC304B1B68052B0AD12F4B4E
:100E6C001B68284A82FB03125211DB17D31A294A3A
:100E7C0013601CE0284B1B68072B0AD1284B1B68FE
:100E8C00204A82FB03125211DB17D31A214A13603A
:100E9C000DE0214B1B68062B09D1224B1B68194A0C
:100EAC0082FB03125211DB17D31A1A4A1360184B28
:100EBC001B68012B14D1104B1B68013B0E4A1360AD
:100ECC00144B1B68013B134A1360084B00221A6039
:100EDC00642000F0D9FC03E000BF02E000BF00E09A
:100EEC0000BF00BF0837BD4680BD00BF54000020C6
:100EFC0000080140676666664C00002090000020E8
:100F0C00340000201F85EB513C00002038000020ED
:100F1C00D40000205000002094000020400000204D
:100F2C00480000204400002080B500AF654B1B68D2
:100F3C00013B032B00F2BC8001A252F823F000BF4E
:100F4C005D0F0008AF0F00080910000863100008BF
:100F5C00012208215C4801F0CAF8012202215A48FA
:100F6C0001F0C5F801220421574801F0C0F8012214
:100F7C004FF40071544801F0BAF801228021524814
:100F8C0001F0B5F801224FF480714F4801F0AFF831
:100F9C004C4B02221A604D4B1B68184600F024FC87
:100FAC008DE000220821484801F0A1F8012202211D
:100FBC00454801F09CF801220421434801F097F8C0
:100FCC0000224FF40071404801F091F80122802179
:100FDC003D4801F08CF801224FF480713A4801F041
:100FEC0086F83B4B1B68012B64D1364B04221A60EC
:100FFC00384B1B68184600F0F7FB5BE00122082118
:10100C00314801F074F8012202212F4801F06FF8E9
:10101C00002204212C4801F06AF801224FF40071DF
:10102C00294801F064F801228021274801F05FF87B
:10103C0000224FF48071244801F059F8244B1B68AE
:10104C00012B39D11F4B02221A60204B1B6818460A
:10105C0000F0CAFB30E0012208211B4801F047F8E0
:10106C0000220221184801F042F8012204211648FE
:10107C0001F03DF801224FF40071134801F037F8EC
:10108C0000228021104801F032F801224FF48071C7
:10109C000D4801F02CF80E4B1B68012B0ED1094B9F
:1010AC0003221A600C4B1B68184600F09DFB05E0F0
:1010BC0000BF04E000BF02E000BF00E000BF00BFC3
:1010CC0080BD00BF900000200008014034000020CB
:1010DC00B40000203C0000203800002080B500AF98
:1010EC006A4B1B68013B062B00F2C68001A252F82A
:1010FC0023F000BF1D11000885120008851200089E
:10110C008512000871110008CD1100082912000881
:10111C00012240215E4800F0EAFF012210215C48C8
:10112C0000F0E5FF01222021594800F0E0FF0122E8
:10113C004FF48051564800F0DAFF01224FF48061E1
:10114C00534800F0D4FF01224FF40061504800F0E6
:10115C00CEFF4E4B07221A604E4B1B68184600F010
:10116C007FFB90E000224021494800F0C0FF0122A3
:10117C001021474800F0BBFF01222021444800F019
:10118C00B6FF00224FF48051414800F0B0FF01221D
:10119C004FF480613E4800F0AAFF01224FF4006139
:1011AC003B4800F0A4FF3C4B1B68012B66D1374B2E
:1011BC0007221A60374B1B68184600F051FB5DE0A4
:1011CC0001224021324800F092FF012210213048C8
:1011DC0000F08DFF002220212D4800F088FF012215
:1011EC004FF480512A4800F082FF01224FF48061B5
:1011FC00274800F07CFF00224FF40061244800F0E7
:10120C0076FF254B1B68012B3AD1204B05221A6027
:10121C00224B1B68184600F023FB31E001224021D1
:10122C001B4800F064FF00221021194800F05FFFFA
:10123C0001222021164800F05AFF01224FF4805160
:10124C00134800F054FF00224FF48061104800F066
:10125C004EFF01224FF400610D4800F048FF0E4B89
:10126C001B68012B0ED1094B06221A600C4B1B6814
:10127C00184600F0F5FA05E000BF04E000BF02E0FC
:10128C0000BF00E000BF00BF80BD00BF9400002085
:10129C000008014048000020CC0000204000002045
:1012AC004400002080B582B000AF00F01FFC00F0BD
:1012BC0033F800F0B9F800F06BF8114801F080FB3E
:1012CC00104B01221A60104B01221A600F4B0A229C
:1012DC001A600B4BDB6801337B60094B5B68013395
:1012EC003B607B683A6802FB03F3094AB2FBF3F3F9
:1012FC00084A1360322000F08BFA00F019F9FCE771
:10130C00D8000020900000209400002098000020BD
:10131C0000127A00AC00002080B590B000AF07F14D
:10132C00180328220021184601F002FF3B1D002261
:10133C001A605A609A60DA601A610223BB61012359
:10134C00BB621023FB6200237B6307F11803184672
:10135C0000F0FEFE0346002B01D000F0E3F80F2353
:10136C007B600023BB600023FB6000233B610023F8
:10137C007B613B1D0021184601F06AF90346002BE6
:10138C0001D000F0CFF800BF4037BD4680BD000053
:10139C0080B586B000AF07F1080300221A605A60CE
:1013AC009A60DA603B4600221A605A601D4B4FF07F
:1013BC0080421A601B4B41F63F725A60194B002257
:1013CC009A60184B0922DA60164B00221A61154BF1
:1013DC0000229A61134801F0A3FA0346002B01D0B6
:1013EC0000F0A0F84FF48053BB6007F108031946D6
:1013FC000C4801F039FC0346002B01D000F092F8A8
:10140C0000233B6000237B603B461946054801F0F6
:10141C0001FE0346002B01D000F084F800BF183702
:10142C00BD4680BDD800002080B588B000AF07F164
:10143C00100300221A605A609A60DA602F4B9B6985
:10144C002E4A43F0100393612C4B9B6903F010035D
:10145C00FB60FB68294B9B69284A43F004039361AA
:10146C00264B9B6903F00403BB60BB68234B9B6951
:10147C00224A43F008039361204B9B6903F0080355
:10148C007B607B6800224DF6FE711D4800F02FFE3C
:10149C00002243F6FF711B4800F029FE4FF4604315
:1014AC003B6100237B610123BB6107F110031946EB
:1014BC00154800F08BFC4DF6FE733B6101237B61FC
:1014CC000023BB610223FB6107F1100319460C4892
:1014DC0000F07CFC43F6FF733B6101237B6100232E
:1014EC00BB610223FB6107F110031946054800F0AC
:1014FC006DFC00BF2037BD4680BD00BF0010024010
:10150C0000080140000C01400010014080B582B081
:10151C0000AF786000F0CCF9FEF718FF00BF083779
:10152C00BD4680BD80B400AF72B600BFFEE70000C0
:10153C0080B500AF9E4B1B680A3B032B00F22D813C
:10154C0001A252F823F000BF651500089B15000896
:10155C004D160008FD160008FFF7E6FCFFF7BEFD70
:10156C00944B1B68944A126811461846FFF7BAFB55
:10157C00FEF792FE0346012B40F01181FEF744FE6C
:10158C00322000F045F98A4B0B221A6007E1FEF776
:10159C00D7FD8A4B1B688A4A82FB03125211DB1758
:1015AC00D31A02211846FFF707FBFEF775FE034618
:1015BC00012B27D1834B1B68002B15D1824B1B6849
:1015CC006FF0630202FB03F27C4B1B6813447B4AF3
:1015DC0013607D4B1B686FF0630202FB03F27B4BC5
:1015EC001B681344794A1360764B00221A60764BC1
:1015FC0000221A60FEF708FE322000F009F96C4B4D
:10160C000C221A60FEF75AFE0346012B0ED16E4BCC
:10161C001B6801336C4A1360684B1B686433674A60
:10162C0013606A4B1B686433684A1360FEF758FEFC
:10163C000346012B40F0B580624B01221A60B0E0EA
:10164C00FEF7A0FD624B1B685D4A82FB0312521130
:10165C00DB17D31A03211846FFF7AEFAFEF71CFE70
:10166C000346012B27D15B4B1B68002B15D1564B26
:10167C001B686FF0630202FB03F2554B1B681344AB
:10168C00534A1360504B1B686FF0630202FB03F26A
:10169C00514B1B681344504A13604E4B00221A6086
:1016AC00494B00221A60FEF7AFFD322000F0B0F873
:1016BC003F4B0D221A60FEF701FE0346012B0ED1A3
:1016CC00414B1B680133404A1360414B1B68643328
:1016DC003F4A1360404B1B6864333F4A1360FEF76C
:1016EC00FFFD0346012B5ED13A4B01221A605AE0F2
:1016FC00FEF76AFD394B1B68314A82FB031252110B
:10170C00DB17D31A04211846FFF756FAFEF7C4FD6F
:10171C000346012B24D1324B1B68002B15D12A4BCD
:10172C001B686FF0630202FB03F22C4B1B68134423
:10173C002A4A1360244B1B686FF0630202FB03F20E
:10174C00284B1B681344274A1360254B00221A6050
:10175C001D4B00221A60FEF757FD154B0A221A602A
:10176C00FEF7ACFD0346012B0ED1174B1B68013362
:10177C00154A1360194B1B686433184A1360194BD4
:10178C001B686433174A1360FEF7AAFD0346012B4E
:10179C000BD1134B01221A6007E000BF06E000BF1B
:1017AC0004E000BF02E000BF00E000BF00BF80BD4E
:1017BC00980000204C000020500000203400002035
:1017CC001F85EB51A00000209C0000204000002051
:1017DC0038000020A4000020440000203C00002021
:1017EC00A80000204800002080B483B000AF7860CF
:1017FC00054A7B681360054B00221A6000BF0C374A
:10180C00BD4680BC704700BFB0000020B400002073
:10181C0080B483B000AF7860054A7B681360054BD9
:10182C0000221A6000BF0C37BD4680BC704700BF59
:10183C00B8000020BC00002080B483B000AF7860FA
:10184C00054A7B681360054B00221A6000BF0C37F9
:10185C00BD4680BC704700BFC0000020C400002003
:10186C0080B483B000AF7860054A7B681360054B89
:10187C0000221A6000BF0C37BD4680BC704700BF09
:10188C00C8000020CC00002080B483B000AF78608A
:10189C00054A7B681360054B00221A6000BF0C37A9
:1018AC00BD4680BC704700BFD0000020D400002093
:1018BC0080B400AF294B1B68002B0BDD274B1B683A
:1018CC00013B264A1360254B1B68002B02DC244B82
:1018DC0001221A60234B1B68002B0BDD214B1B686C
:1018EC00013B204A13601F4B1B68002B02DC1E4B74
:1018FC0001221A601D4B1B68002B0BDD1B4B1B6858
:10190C00013B1A4A1360194B1B68002B02DC184B65
:10191C0001221A60174B1B68002B0BDD154B1B6843
:10192C00013B144A1360134B1B68002B02DC124B57
:10193C0001221A60114B1B68002B0BDD0F4B1B682F
:10194C00013B0E4A13600D4B1B68002B02DC0C4B49
:10195C0001221A6000BFBD4680BC7047B000002059
:10196C00B4000020B8000020BC000020C000002003
:10197C00C4000020C8000020CC000020D0000020B3
:10198C00D400002080B485B000AF154B9B69144A7D
:10199C0043F001039361124B9B6903F00103BB609D
:1019AC00BB680F4BDB690E4A43F08053D3610C4B81
:1019BC00DB6903F080537B607B680A4B5B68FB60E0
:1019CC00FB6823F0E063FB60FB6843F08063FB6023
:1019DC00044AFB68536000BF1437BD4680BC704797
:1019EC00001002400000014080B584B000AF786068
:1019FC007B681B68B3F1804F13D10C4BDB690B4A2E
:101A0C0043F00103D361094BDB6903F00103FB6075
:101A1C00FB68002200211C2000F0A1F91C2000F022
:101A2C00BAF900BF1037BD4680BD00BF00100240A0
:101A3C0080B400AFFEE780B400AFFEE780B400AF27
:101A4C00FEE780B400AFFEE780B400AFFEE780B4E1
:101A5C0000AF00BFBD4680BC704780B400AF00BF74
:101A6C00BD4680BC704780B400AF00BFBD4680BC93
:101A7C00704780B500AF00F07FF800BF80BD00005C
:101A8C0080B500AF024800F0E7FF00BF80BD00BF8B
:101A9C00D800002080B400AF00BFBD4680BC7047AA
:101AAC000C480D490D4A002302E0D458C4500433AD
:101ABC00C4188C42F9D30A4A0A4C002301E0136083
:101ACC000432A242FBD3FFF7E5FF01F00DFBFFF759
:101ADC00E9FB704700000020680000208C310008F2
:101AEC006800002024010020FEE7000080B500AF54
:101AFC00084B1B68074A43F010031360032000F0E7
:101B0C0023F90F2000F008F8FFF73CFF00231846DC
:101B1C0080BD00BF0020024080B582B000AF78606D
:101B2C00124B1A68124B1B7819464FF47A73B3FB9D
:101B3C00F1F3B2FBF3F3184600F03BF90346002B2C
:101B4C0001D001230EE07B680F2B0AD800227968A4
:101B5C004FF0FF3000F003F9064A7B681360002356
:101B6C0000E0012318460837BD4680BD5C0000200C
:101B7C00640000206000002080B400AF054B1B788F
:101B8C001A46054B1B681344034A136000BFBD463D
:101B9C0080BC7047640000202001002080B400AF9E
:101BAC00024B1B681846BD4680BC704720010020C4
:101BBC0080B485B000AF78607B6803F00703FB60EE
:101BCC000C4BDB68BB60BA684FF6FF031340BB607D
:101BDC00FB681A02BB68134343F0BF6343F4003342
:101BEC00BB60044ABB68D36000BF1437BD4680BCE1
:101BFC00704700BF00ED00E080B400AF044BDB6821
:101C0C001B0A03F007031846BD4680BC704700BF93
:101C1C0000ED00E080B483B000AF0346FB7197F990
:101C2C000730002B0BDBFB7903F01F02064997F9F9
:101C3C0007305B09012000FA02F241F8232000BFB3
:101C4C000C37BD4680BC704700E100E080B483B027
:101C5C0000AF03463960FB7197F90730002B0ADBA4
:101C6C003B68DAB20C4997F907301201D2B20B4437
:101C7C0083F800230AE03B68DAB20849FB7903F0E9
:101C8C000F03043B1201D2B20B441A7600BF0C377F
:101C9C00BD4680BC704700BF00E100E000ED00E0F5
:101CAC0080B489B000AFF860B9607A60FB6803F06B
:101CBC000703FB61FB69C3F10703042B28BF042353
:101CCC00BB61FB690433062B02D9FB69033B00E0C3
:101CDC0000237B614FF0FF32BB6902FA03F3DA4356
:101CEC00BB681A407B699A404FF0FF317B6901FA5F
:101CFC0003F3D9437B680B40134318462437BD4686
:101D0C0080BC704780B582B000AF78607B68013BC7
:101D1C00B3F1807F01D301230FE00A4A7B68013BBA
:101D2C0053600F214FF0FF30FFF790FF054B00225F
:101D3C009A60044B07221A60002318460837BD46E8
:101D4C0080BD00BF10E000E080B582B000AF7860CD
:101D5C007868FFF72DFF00BF0837BD4680BD80B502
:101D6C0086B000AF0346B9607A60FB7300237B61D9
:101D7C00FFF742FF78617A68B9687869FFF790FFDE
:101D8C00024697F90F3011461846FFF75FFF00BF68
:101D9C001837BD4680BD80B582B000AF0346FB71DD
:101DAC0097F907301846FFF735FF00BF0837BD46D7
:101DBC0080BD80B582B000AF78607868FFF7A2FF75
:101DCC00034618460837BD4680BD000080B48BB072
:101DDC0000AF7860396000237B6200233B6248E1EE
:101DEC0001227B6A02FA03F3FB613B681B68FA6908
:101DFC001340BB61BA69FB699A4240F037813B687A
:101E0C005B68A34A93425ED0A14A934275D8A14A1B
:101E1C00934258D09F4A93426FD89F4A934252D0D4
:101E2C009D4A934269D89D4A93424CD09B4A934217
:101E3C0063D89B4A934246D0994A93425DD8122B61
:101E4C002AD8122B59D801A252F823F0D31E00081D
:101E5C00AD1E0008BF1E0008011F0008071F000868
:101E6C00071F0008071F0008071F0008071F0008AE
:101E7C00071F0008071F0008071F0008071F00089E
:101E8C00071F0008071F0008071F0008071F00088E
:101E9C00B51E0008C91E0008824A934213D02CE0DC
:101EAC003B68DB683B6229E03B68DB6804333B62E0
:101EBC0024E03B68DB6808333B621FE03B68DB686F
:101ECC000C333B621AE03B689B68002B02D1042365
:101EDC003B6213E03B689B68012B05D108233B62F6
:101EEC007B68FA691A6109E008233B627B68FA692E
:101EFC005A6103E000233B6200E000BFBB69FF2B8B
:101F0C0001D87B6801E07B6804337B61BB69FF2BE4
:101F1C0002D87B6A9B0002E07B6A083B9B003B611A
:101F2C007B691A680F213B6901FA03F3DB431A4002
:101F3C00396A3B6901FA03F31A437B691A603B68FF
:101F4C005B6803F08053002B00F09080564B9B692C
:101F5C00554A43F001039361534B9B6903F0010312
:101F6C00BB60BB68514A7B6A9B08023352F8233032
:101F7C00FB607B6A03F003039B000F2202FA03F35E
:101F8C00DB43FA681340FB607B68494A93420DD0EF
:101F9C007B68484A934207D07B68474A934201D1F9
:101FAC00022304E0032302E0012300E000237A6A09
:101FBC0002F0030292009340FA681343FB603B4922
:101FCC007B6A9B080233FA6841F823203B685B6804
:101FDC0003F48033002B06D0384B1A683749BB69A1
:101FEC0013430B6006E0354B1A68BB69DB4333497E
:101FFC0013400B603B685B6803F40033002B06D086
:10200C002E4B5A682D49BB6913434B6006E02B4B92
:10201C005A68BB69DB43294913404B603B685B68DA
:10202C0003F48013002B06D0244B9A682349BB6918
:10203C0013438B6006E0214B9A68BB69DB431F4955
:10204C0013408B603B685B6803F40013002B06D0D5
:10205C001A4BDA681949BB691343CB6006E0174B7E
:10206C00DA68BB69DB4315491340CB607B6A0133EB
:10207C007B623B681A687B6A22FA03F3002B7FF4BD
:10208C00AFAE00BF00BF2C37BD4680BC704700BF51
:10209C00000032100000311000002210000021104E
:1020AC00000012100000111000100240000001404E
:1020BC0000080140000C01400010014000040140E8
:1020CC0080B485B000AF78600B467B807B689A68E3
:1020DC007B881340002B02D00123FB7301E000230B
:1020EC00FB73FB7B18461437BD4680BC704780B42D
:1020FC0083B000AF78600B467B8013467B707B7897
:10210C00002B03D07A887B681A6103E07B881A0461
:10211C007B681A6100BF0C37BD4680BC704780B429
:10212C0085B000AF78600B467B807B68DB68FB601A
:10213C007A88FB6813401A04FB68D9437B880B40F0
:10214C001A437B681A6100BF1437BD4680BC7047C8
:10215C0080B586B000AF78607B68002B01D101237D
:10216C006CE27B681B6803F00103002B00F0878096
:10217C00924B5B6803F00C03042B0CD08F4B5B6809
:10218C0003F00C03082B12D18C4B5B6803F48033E7
:10219C00B3F5803F0BD1894B1B6803F40033002B44
:1021AC006CD07B685B68002B68D1012346E27B68AE
:1021BC005B68B3F5803F06D1804B1B687F4A43F4C4
:1021CC00803313602EE07B685B68002B0CD17B4B5B
:1021DC001B687A4A23F480331360784B1B68774A68
:1021EC0023F4802313601DE07B685B68B3F5A02F9C
:1021FC000CD1724B1B68714A43F4802313606F4BF4
:10220C001B686E4A43F4803313600BE06B4B1B6806
:10221C006A4A23F480331360684B1B68674A23F4C3
:10222C00802313607B685B68002B13D0FFF7B6FC30
:10223C00386108E0FFF7B2FC02463B69D31A642B05
:10224C0001D90323FAE15D4B1B6803F40033002B27
:10225C00F0D014E0FFF7A2FC386108E0FFF79EFC19
:10226C0002463B69D31A642B01D90323E6E1534B95
:10227C001B6803F40033002BF0D100E000BF7B6837
:10228C001B6803F00203002B63D04C4B5B6803F01C
:10229C000C03002B0BD0494B5B6803F00C03082B91
:1022AC001CD1464B5B6803F48033002B16D1434B97
:1022BC001B6803F00203002B05D07B681B69012B04
:1022CC0001D00123BAE13D4B1B6823F0F8027B6877
:1022DC005B69DB00394913430B603AE07B681B698F
:1022EC00002B20D0364B01221A60FFF757FC3861C7
:1022FC0008E0FFF753FC02463B69D31A022B01D9C5
:10230C0003239BE12D4B1B6803F00203002BF0D041
:10231C002A4B1B6823F0F8027B685B69DB002749BA
:10232C0013430B6015E0264B00221A60FFF736FCB6
:10233C00386108E0FFF732FC02463B69D31A022BE6
:10234C0001D903237AE11D4B1B6803F00203002B18
:10235C00F0D17B681B6803F00803002B3AD07B6834
:10236C009B69002B19D0174B01221A60FFF716FC42
:10237C00386108E0FFF712FC02463B69D31A022BC6
:10238C0001D903235AE10D4B5B6A03F00203002BC6
:10239C00F0D0012000F0A6FA1CE00A4B00221A60D3
:1023AC00FFF7FCFB38610FE0FFF7F8FB02463B69D7
:1023BC00D31A022B08D9032340E100BF00100240BE
:1023CC0000004242800442429E4B5B6A03F00203CF
:1023DC00002BE9D17B681B6803F00403002B00F091
:1023EC00A6800023FB75974BDB6903F08053002B11
:1023FC000DD1944BDB69934A43F08053D361914BDD
:10240C00DB6903F08053BB60BB680123FB758E4B0B
:10241C001B6803F48073002B18D18B4B1B688A4A02
:10242C0043F480731360FFF7B9FB386108E0FFF7E2
:10243C00B5FB02463B69D31A642B01D90323FDE09B
:10244C00814B1B6803F48073002BF0D07B68DB6836
:10245C00012B06D17B4B1B6A7A4A43F001031362B2
:10246C002DE07B68DB68002B0CD1764B1B6A754A20
:10247C0023F001031362734B1B6A724A23F00403AB
:10248C0013621CE07B68DB68052B0CD16D4B1B6A5F
:10249C006C4A43F0040313626A4B1B6A694A43F0AB
:1024AC00010313620BE0674B1B6A664A23F00103BE
:1024BC001362644B1B6A634A23F0040313627B6848
:1024CC00DB68002B15D0FFF769FB38610AE0FFF7DA
:1024DC0065FB02463B69D31A41F28832934201D91B
:1024EC000323ABE0574B1B6A03F00203002BEED027
:1024FC0014E0FFF753FB38610AE0FFF74FFB02468D
:10250C003B69D31A41F28832934201D9032395E0F7
:10251C004C4B1B6A03F00203002BEED1FB7D012B0D
:10252C0005D1484BDB69474A23F08053D3617B6864
:10253C00DB69002B00F08180424B5B6803F00C03DD
:10254C00082B61D07B68DB69022B46D13F4B002204
:10255C001A60FFF723FB386108E0FFF71FFB024608
:10256C003B69D31A022B01D9032367E0354B1B6857
:10257C0003F00073002BF0D17B681B6AB3F5803F2E
:10258C0008D1304B5B6823F400327B689B682D4983
:10259C0013434B602B4B5B6823F474127B68196AF2
:1025AC007B685B6A0B43274913434B60274B012223
:1025BC001A60FFF7F3FA386108E0FFF7EFFA02460A
:1025CC003B69D31A022B01D9032337E01D4B1B683F
:1025DC0003F00073002BF0D02FE01C4B00221A608C
:1025EC00FFF7DCFA386108E0FFF7D8FA02463B69DE
:1025FC00D31A022B01D9032320E0124B1B6803F0E2
:10260C000073002BF0D118E07B68DB69012B01D142
:10261C00012313E00B4B5B68FB60FB6803F4803217
:10262C007B681B6A9A4206D1FB6803F470127B68C4
:10263C005B6A9A4201D0012300E000231846183748
:10264C00BD4680BD00100240007000406000424258
:10265C0080B584B000AF786039607B68002B01D105
:10266C000123D0E06A4B1B6803F007033A689A42D7
:10267C0010D9674B1B6823F0070265493B6813436D
:10268C000B60634B1B6803F007033A689A4201D056
:10269C000123B8E07B681B6803F00203002B20D0F9
:1026AC007B681B6803F00403002B05D0594B5B6857
:1026BC00584A43F4E06353607B681B6803F00803DB
:1026CC00002B05D0534B5B68524A43F46053536064
:1026DC00504B5B6823F0F0027B689B684D491343B9
:1026EC004B607B681B6803F00103002B40D07B68B8
:1026FC005B68012B07D1474B1B6803F40033002B9D
:10270C0015D101237FE07B685B68022B07D1414B1D
:10271C001B6803F00073002B09D1012373E03D4BC0
:10272C001B6803F00203002B01D101236BE0394B32
:10273C005B6823F003027B685B68364913434B608C
:10274C00FFF72CFAF8600AE0FFF728FA0246FB685C
:10275C00D31A41F28832934201D9032353E02D4B13
:10276C005B6803F00C027B685B689B009A42EBD1C0
:10277C00274B1B6803F007033A689A4210D2244B8C
:10278C001B6823F0070222493B6813430B60204B64
:10279C001B6803F007033A689A4201D0012332E028
:1027AC007B681B6803F00403002B08D0194B5B6893
:1027BC0023F4E0627B68DB68164913434B607B684B
:1027CC001B6803F00803002B09D0124B5B6823F441
:1027DC0060527B681B69DB000E4913434B6000F0B1
:1027EC0021F802460B4B5B681B0903F00F030A49E7
:1027FC00CB5C22FA03F3094A1360094B1B68184699
:10280C00FFF78AF9002318461037BD4680BD00BF7C
:10281C000020024000100240743100085C000020CF
:10282C006000002090B48AB000AF2A4B3C1D0FCB47
:10283C0084E80F0040F201233B800023FB6100235E
:10284C00BB6100237B6200237B6100233B62224B34
:10285C005B68FB61FB6903F00C03042B02D0082BB3
:10286C0003D02DE01D4B3B622DE0FB699B0C03F06C
:10287C000F0307F12802134413F8243C7B61FB6916
:10288C0003F48033002B13D0134B5B685B0C03F009
:10289C00010307F12802134413F8283CBB617B6940
:1028AC000E4A02FB03F2BB69B2FBF3F37B6204E05A
:1028BC007B690B4A02FB03F37B627B6A3B6202E09F
:1028CC00064B3B6200BF3B6A18462837BD4690BC9E
:1028DC00704700BF643100080010024000127A00FB
:1028EC0000093D0080B485B000AF78600A4B1B68CE
:1028FC000A4AA2FB03235B0A7A6802FB03F3FB6020
:10290C0000BFFB685A1EFA60002BF9D100BF00BF54
:10291C001437BD4680BC70475C000020D34D62105C
:10292C0080B582B000AF78607B68002B01D10123A9
:10293C0041E07B6893F83D30DBB2002B06D17B681D
:10294C00002283F83C207868FFF74EF87B6802225F
:10295C0083F83D207B681A687B680433194610465F
:10296C0000F06AFA7B68012283F846207B6801221A
:10297C0083F83E207B68012283F83F207B6801228C
:10298C0083F840207B68012283F841207B68012278
:10299C0083F842207B68012283F843207B68012264
:1029AC0083F844207B68012283F845207B68012250
:1029BC0083F83D20002318460837BD4680BD000033
:1029CC0080B485B000AF78607B6893F83D30DBB2A3
:1029DC00012B01D0012335E07B68022283F83D20D6
:1029EC007B681B68DA687B681B6842F00102DA605E
:1029FC007B681B68164A934209D07B681B68B3F14D
:102A0C00804F04D07B681B68124A934211D17B68BB
:102A1C001B689B6803F00703FB60FB68062B10D058
:102A2C007B681B681A687B681B6842F001021A609D
:102A3C0007E07B681B681A687B681B6842F0010220
:102A4C001A60002318461437BD4680BC704700BF7F
:102A5C00002C01400004004080B582B000AF7860CB
:102A6C007B681B681B6903F00203022B22D17B6875
:102A7C001B68DB6803F00203022B1BD17B681B680D
:102A8C006FF002021A617B6801221A777B681B685F
:102A9C009B6903F00303002B03D0786800F0B1F9B5
:102AAC0005E0786800F0A4F9786800F0B3F97B6869
:102ABC0000221A777B681B681B6903F00403042B44
:102ACC0022D17B681B68DB6803F00403042B1BD149
:102ADC007B681B686FF004021A617B6802221A770C
:102AEC007B681B689B6903F44073002B03D07868E8
:102AFC0000F087F905E0786800F07AF9786800F062
:102B0C0089F97B6800221A777B681B681B6903F0C4
:102B1C000803082B22D17B681B68DB6803F00803D1
:102B2C00082B1BD17B681B686FF008021A617B684D
:102B3C0004221A777B681B68DB6903F00303002B04
:102B4C0003D0786800F05DF905E0786800F050F982
:102B5C00786800F05FF97B6800221A777B681B6845
:102B6C001B6903F01003102B22D17B681B68DB68F8
:102B7C0003F01003102B1BD17B681B686FF0100245
:102B8C001A617B6808221A777B681B68DB6903F47F
:102B9C004073002B03D0786800F033F905E07868B7
:102BAC0000F026F9786800F035F97B6800221A7776
:102BBC007B681B681B6903F00103012B0ED17B683A
:102BCC001B68DB6803F00103012B07D17B681B68D2
:102BDC006FF001021A617868FEF798FC7B681B683D
:102BEC001B6903F08003802B0ED17B681B68DB68AC
:102BFC0003F08003802B07D17B681B686FF0800289
:102C0C001A61786800F067FA7B681B681B6903F02F
:102C1C004003402B0ED17B681B68DB6803F040033C
:102C2C00402B07D17B681B686FF040021A617868F3
:102C3C0000F0F9F87B681B681B6903F02003202B5C
:102C4C000ED17B681B68DB6803F02003202B07D1B7
:102C5C007B681B686FF020021A61786800F032FA0A
:102C6C0000BF0837BD4680BD80B584B000AF78602A
:102C7C0039607B6893F83C30012B01D10223B3E01F
:102C8C007B68012283F83C207B68022283F83D207C
:102C9C007B681B689B68FB60FB6823F07703FB6019
:102CAC00FB6823F47F43FB607B681B68FA689A60BF
:102CBC003B681B68B3F5005F3ED0B3F5005F00F2D4
:102CCC008780B3F5805F00F08580B3F5805F7FD897
:102CDC00702B1AD0702B7BD8602B50D0602B77D8F0
:102CEC00502B3CD0502B73D8402B58D0402B6FD846
:102CFC00302B64D0302B6BD8202B60D0202B67D896
:102D0C00002B5CD0102B5AD062E07B6818683B68B3
:102D1C0099683B685A683B68DB6800F05CF97B6833
:102D2C001B689B68FB60FB6843F07703FB607B6868
:102D3C001B68FA689A604EE07B6818683B68996873
:102D4C003B685A683B68DB6800F045F97B681B6898
:102D5C009A687B681B6842F480429A603BE07B680F
:102D6C0018683B6859683B68DB681A4600F0BCF889
:102D7C007B681B685021184600F013F92BE07B6828
:102D8C0018683B6859683B68DB681A4600F0DAF84B
:102D9C007B681B686021184600F003F91BE07B6818
:102DAC0018683B6859683B68DB681A4600F09CF869
:102DBC007B681B684021184600F0F3F80BE07B6839
:102DCC001A683B681B681946104600F0EAF802E0E6
:102DDC0000BF00E000BF7B68012283F83D207B68C8
:102DEC00002283F83C20002318461037BD4680BDD6
:102DFC0080B483B000AF786000BF0C37BD4680BC98
:102E0C00704780B483B000AF786000BF0C37BD460C
:102E1C0080BC704780B483B000AF786000BF0C37C3
:102E2C00BD4680BC704780B483B000AF786000BFF3
:102E3C000C37BD4680BC704780B485B000AF78605D
:102E4C0039607B681B68FB607B68254A934207D01E
:102E5C007B68B3F1804F03D07B68224A934208D140
:102E6C00FB6823F07003FB603B685B68FA681343F4
:102E7C00FB607B681A4A934207D07B68B3F1804FA2
:102E8C0003D07B68174A934208D1FB6823F4407344
:102E9C00FB603B68DB68FA681343FB60FB6823F05C
:102EAC0080023B685B691343FB607B68FA681A60BD
:102EBC003B689A687B68DA623B681A687B689A623E
:102ECC007B68074A934203D13B681A697B681A6393
:102EDC007B6801225A6100BF1437BD4680BC704725
:102EEC00002C01400004004080B487B000AFF860B3
:102EFC00B9607A60FB681B6A7B61FB681B6A23F014
:102F0C000102FB681A62FB689B693B613B6923F019
:102F1C00F0033B617B681B013A6913433B617B699E
:102F2C0023F00A037B617A69BB6813437B61FB68FE
:102F3C003A699A61FB687A691A6200BF1C37BD4610
:102F4C0080BC704780B487B000AFF860B9607A601D
:102F5C00FB681B6A23F01002FB681A62FB689B6912
:102F6C007B61FB681B6A3B617B6923F470437B616B
:102F7C007B681B037A6913437B613B6923F0A003D5
:102F8C003B61BB681B013A6913433B61FB687A697F
:102F9C009A61FB683A691A6200BF1C37BD4680BC57
:102FAC00704780B485B000AF786039607B689B68EF
:102FBC00FB60FB6823F07003FB603A68FB6813430B
:102FCC0043F00703FB607B68FA689A6000BF143714
:102FDC00BD4680BC704780B487B000AFF860B96064
:102FEC007A603B60FB689B687B617B6923F47F4361
:102FFC007B613B681A027B681A43BB6813437A698E
:10300C0013437B61FB687A699A6000BF1C37BD462D
:10301C0080BC704780B485B000AF786039607B6845
:10302C0093F83C30012B01D1022341E07B68012253
:10303C0083F83C207B68022283F83D207B681B6868
:10304C005B68FB607B681B689B68BB60FB6823F05C
:10305C007003FB603B681B68FA681343FB607B687A
:10306C001B68FA685A607B681B68144A934209D043
:10307C007B681B68B3F1804F04D07B681B68104AD7
:10308C0093420CD1BB6823F08003BB603B685B6848
:10309C00BA681343BB607B681B68BA689A607B682C
:1030AC00012283F83D207B68002283F83C2000231A
:1030BC0018461437BD4680BC704700BF002C014039
:1030CC000004004080B483B000AF786000BF0C37C0
:1030DC00BD4680BC704780B483B000AF786000BF41
:1030EC000C37BD4680BC704770B500260C4D0D4C9E
:1030FC00641BA410A64209D100F022F800260A4D48
:10310C000A4C641BA410A64205D170BD55F8043BB3
:10311C0098470136EEE755F8043B98470136F2E73D
:10312C00843100088431000884310008883100089B
:10313C0003460244934200D1704703F8011BF9E7A0
:10314C00F8B500BFF8BC08BC9E467047F8B500BF88
:08315C00F8BC08BC9E46704758
:1031640002030405060708090A0B0C0D0E0F1010C4
:103174000000000000000000010203040607080923
:04318400310100080D
:043188000D0100082D
:10318C00010000000100000001000000010000002F
:10319C00010000000100000001000000010000001F
:1031AC00010000000100000001000000010000000F
:1031BC00FFFFFFFFF4010000C80000002C0100001D
:1031CC00F4010000C80000002C0100000500000004
:1031DC0003000000FFFFFFFFC80000000024F40004
:0831EC001000000001000000CA
:0400000508001AAD28
:00000001FF
